{
  "_format": "hh-sol-artifact-1",
  "contractName": "Fund",
  "sourceName": "contracts/Fund.sol",
  "abi": [
    {
      "anonymous": false,
      "inputs": [
        {
          "indexed": true,
          "internalType": "address",
          "name": "addr",
          "type": "address"
        },
        {
          "indexed": false,
          "internalType": "uint256",
          "name": "amount",
          "type": "uint256"
        },
        {
          "indexed": false,
          "internalType": "uint256",
          "name": "balance",
          "type": "uint256"
        }
      ],
      "name": "Deposit",
      "type": "event"
    },
    {
      "anonymous": false,
      "inputs": [
        {
          "indexed": true,
          "internalType": "address",
          "name": "addr",
          "type": "address"
        },
        {
          "indexed": false,
          "internalType": "uint256",
          "name": "amount",
          "type": "uint256"
        },
        {
          "indexed": false,
          "internalType": "uint256",
          "name": "balance",
          "type": "uint256"
        }
      ],
      "name": "Withdraw",
      "type": "event"
    },
    {
      "inputs": [
        {
          "internalType": "address",
          "name": "",
          "type": "address"
        }
      ],
      "name": "addressToAmountFunded",
      "outputs": [
        {
          "internalType": "uint256",
          "name": "",
          "type": "uint256"
        }
      ],
      "stateMutability": "view",
      "type": "function"
    },
    {
      "inputs": [],
      "name": "fund",
      "outputs": [],
      "stateMutability": "payable",
      "type": "function"
    },
    {
      "inputs": [
        {
          "internalType": "uint256",
          "name": "",
          "type": "uint256"
        }
      ],
      "name": "funders",
      "outputs": [
        {
          "internalType": "address",
          "name": "",
          "type": "address"
        }
      ],
      "stateMutability": "view",
      "type": "function"
    },
    {
      "inputs": [
        {
          "internalType": "address",
          "name": "_addr",
          "type": "address"
        }
      ],
      "name": "getAddressToAmountFunded",
      "outputs": [
        {
          "internalType": "uint256",
          "name": "",
          "type": "uint256"
        }
      ],
      "stateMutability": "view",
      "type": "function"
    },
    {
      "inputs": [],
      "name": "getFunders",
      "outputs": [
        {
          "internalType": "address[]",
          "name": "",
          "type": "address[]"
        }
      ],
      "stateMutability": "view",
      "type": "function"
    },
    {
      "inputs": [],
      "name": "getTotalFunds",
      "outputs": [
        {
          "internalType": "uint256",
          "name": "",
          "type": "uint256"
        }
      ],
      "stateMutability": "view",
      "type": "function"
    },
    {
      "inputs": [],
      "name": "totalFunds",
      "outputs": [
        {
          "internalType": "uint256",
          "name": "",
          "type": "uint256"
        }
      ],
      "stateMutability": "view",
      "type": "function"
    },
    {
      "inputs": [
        {
          "internalType": "uint256",
          "name": "_amount",
          "type": "uint256"
        }
      ],
      "name": "withdraw",
      "outputs": [],
      "stateMutability": "payable",
      "type": "function"
    }
  ],
  "bytecode": "0x608060405234801561001057600080fd5b50610525806100206000396000f3fe60806040526004361061007b5760003560e01c8063b60d42881161004e578063b60d428814610121578063dc0d3dff14610129578063ea63a04414610161578063eb8bbd281461018357600080fd5b80630343fb25146100805780632e1a7d4d146100c95780633e47d6f3146100de578063968ed6001461010b575b600080fd5b34801561008c57600080fd5b506100b661009b366004610417565b6001600160a01b031660009081526020819052604090205490565b6040519081526020015b60405180910390f35b6100dc6100d7366004610445565b610198565b005b3480156100ea57600080fd5b506100b66100f9366004610417565b60006020819052908152604090205481565b34801561011757600080fd5b506100b660015481565b6100dc6102c7565b34801561013557600080fd5b50610149610144366004610445565b61038b565b6040516001600160a01b0390911681526020016100c0565b34801561016d57600080fd5b506101766103b5565b6040516100c0919061045d565b34801561018f57600080fd5b506001546100b6565b336000908152602081905260409020548111156102135760405162461bcd60e51b815260206004820152602f60248201527f596f752063616e2774207769746864726177206d6f7265207468616e2077686160448201526e1d081e5bdd4819195c1bdcda5d1959608a1b606482015260840160405180910390fd5b33600090815260208190526040812080548392906102329084906104c2565b92505081905550806001600082825461024b91906104c2565b90915550503360008181526020818152604091829020548251858152918201527ff279e6a1f5e320cca91135676d9cb6e44ca8a08c0b88342bcdb1144f6511b568910160405180910390a2604051339082156108fc029083906000818181858888f193505050501580156102c3573d6000803e3d6000fd5b5050565b33600090815260208190526040812080543492906102e69084906104aa565b9250508190555034600160008282546102ff91906104aa565b909155505060028054600181019091557f405787fa12a823e0f2b7631cc41b3ba8828b3321ca811111fa75cd3aa3bb5ace0180546001600160a01b0319163390811790915560008181526020818152604091829020548251348152918201527f90890809c654f11d6e72a28fa60149770a0d11ec6c92319d6ceb2bb0a4ea1a15910160405180910390a2565b6002818154811061039b57600080fd5b6000918252602090912001546001600160a01b0316905081565b6060600280548060200260200160405190810160405280929190818152602001828054801561040d57602002820191906000526020600020905b81546001600160a01b031681526001909101906020018083116103ef575b5050505050905090565b600060208284031215610428578081fd5b81356001600160a01b038116811461043e578182fd5b9392505050565b600060208284031215610456578081fd5b5035919050565b6020808252825182820181905260009190848201906040850190845b8181101561049e5783516001600160a01b031683529284019291840191600101610479565b50909695505050505050565b600082198211156104bd576104bd6104d9565b500190565b6000828210156104d4576104d46104d9565b500390565b634e487b7160e01b600052601160045260246000fdfea264697066735822122009f06a4c1d4bfec7457b0bf6cf7639bdcde31c9337cdd62e5b67a49695a8439a64736f6c63430008040033",
  "linkReferences": {},
  "deployedLinkReferences": {}
}