{
  "_format": "hh-sol-artifact-1",
  "contractName": "Fund",
  "sourceName": "contracts/Fund.sol",
  "abi": [
    {
      "inputs": [
        {
          "internalType": "address",
          "name": "",
          "type": "address"
        }
      ],
      "name": "addressToAmountFunded",
      "outputs": [
        {
          "internalType": "uint256",
          "name": "",
          "type": "uint256"
        }
      ],
      "stateMutability": "view",
      "type": "function"
    },
    {
      "inputs": [],
      "name": "fund",
      "outputs": [],
      "stateMutability": "payable",
      "type": "function"
    },
    {
      "inputs": [
        {
          "internalType": "uint256",
          "name": "",
          "type": "uint256"
        }
      ],
      "name": "funders",
      "outputs": [
        {
          "internalType": "address",
          "name": "",
          "type": "address"
        }
      ],
      "stateMutability": "view",
      "type": "function"
    },
    {
      "inputs": [
        {
          "internalType": "address",
          "name": "_addr",
          "type": "address"
        }
      ],
      "name": "getAddressToAmountFunded",
      "outputs": [
        {
          "internalType": "uint256",
          "name": "",
          "type": "uint256"
        }
      ],
      "stateMutability": "view",
      "type": "function"
    },
    {
      "inputs": [],
      "name": "getFunders",
      "outputs": [
        {
          "internalType": "address[]",
          "name": "",
          "type": "address[]"
        }
      ],
      "stateMutability": "view",
      "type": "function"
    },
    {
      "inputs": [],
      "name": "getTotalFunds",
      "outputs": [
        {
          "internalType": "uint256",
          "name": "",
          "type": "uint256"
        }
      ],
      "stateMutability": "view",
      "type": "function"
    },
    {
      "inputs": [],
      "name": "totalFunds",
      "outputs": [
        {
          "internalType": "uint256",
          "name": "",
          "type": "uint256"
        }
      ],
      "stateMutability": "view",
      "type": "function"
    },
    {
      "inputs": [
        {
          "internalType": "uint256",
          "name": "_amount",
          "type": "uint256"
        }
      ],
      "name": "withdraw",
      "outputs": [],
      "stateMutability": "payable",
      "type": "function"
    }
  ],
  "bytecode": "0x608060405234801561001057600080fd5b506108d3806100206000396000f3fe60806040526004361061007b5760003560e01c8063b60d42881161004e578063b60d428814610141578063dc0d3dff1461014b578063ea63a04414610188578063eb8bbd28146101b35761007b565b80630343fb25146100805780632e1a7d4d146100bd5780633e47d6f3146100d9578063968ed60014610116575b600080fd5b34801561008c57600080fd5b506100a760048036038101906100a29190610551565b6101de565b6040516100b491906106c6565b60405180910390f35b6100d760048036038101906100d2919061057a565b610226565b005b3480156100e557600080fd5b5061010060048036038101906100fb9190610551565b61035f565b60405161010d91906106c6565b60405180910390f35b34801561012257600080fd5b5061012b610377565b60405161013891906106c6565b60405180910390f35b61014961037d565b005b34801561015757600080fd5b50610172600480360381019061016d919061057a565b610450565b60405161017f9190610669565b60405180910390f35b34801561019457600080fd5b5061019d61048f565b6040516101aa9190610684565b60405180910390f35b3480156101bf57600080fd5b506101c861051d565b6040516101d591906106c6565b60405180910390f35b60008060008373ffffffffffffffffffffffffffffffffffffffff1673ffffffffffffffffffffffffffffffffffffffff168152602001908152602001600020549050919050565b6000803373ffffffffffffffffffffffffffffffffffffffff1673ffffffffffffffffffffffffffffffffffffffff168152602001908152602001600020548111156102a7576040517f08c379a000000000000000000000000000000000000000000000000000000000815260040161029e906106a6565b60405180910390fd5b806000803373ffffffffffffffffffffffffffffffffffffffff1673ffffffffffffffffffffffffffffffffffffffff16815260200190815260200160002060008282546102f59190610781565b92505081905550806001600082825461030e9190610781565b925050819055503373ffffffffffffffffffffffffffffffffffffffff166108fc829081150290604051600060405180830381858888f1935050505015801561035b573d6000803e3d6000fd5b5050565b60006020528060005260406000206000915090505481565b60015481565b346000803373ffffffffffffffffffffffffffffffffffffffff1673ffffffffffffffffffffffffffffffffffffffff16815260200190815260200160002060008282546103cb919061072b565b9250508190555034600160008282546103e4919061072b565b925050819055506002339080600181540180825580915050600190039060005260206000200160009091909190916101000a81548173ffffffffffffffffffffffffffffffffffffffff021916908373ffffffffffffffffffffffffffffffffffffffff160217905550565b6002818154811061046057600080fd5b906000526020600020016000915054906101000a900473ffffffffffffffffffffffffffffffffffffffff1681565b6060600280548060200260200160405190810160405280929190818152602001828054801561051357602002820191906000526020600020905b8160009054906101000a900473ffffffffffffffffffffffffffffffffffffffff1673ffffffffffffffffffffffffffffffffffffffff16815260200190600101908083116104c9575b5050505050905090565b6000600154905090565b6000813590506105368161086f565b92915050565b60008135905061054b81610886565b92915050565b60006020828403121561056357600080fd5b600061057184828501610527565b91505092915050565b60006020828403121561058c57600080fd5b600061059a8482850161053c565b91505092915050565b60006105af83836105bb565b60208301905092915050565b6105c4816107b5565b82525050565b6105d3816107b5565b82525050565b60006105e4826106f1565b6105ee8185610709565b93506105f9836106e1565b8060005b8381101561062a57815161061188826105a3565b975061061c836106fc565b9250506001810190506105fd565b5085935050505092915050565b6000610644602f8361071a565b915061064f82610820565b604082019050919050565b610663816107e7565b82525050565b600060208201905061067e60008301846105ca565b92915050565b6000602082019050818103600083015261069e81846105d9565b905092915050565b600060208201905081810360008301526106bf81610637565b9050919050565b60006020820190506106db600083018461065a565b92915050565b6000819050602082019050919050565b600081519050919050565b6000602082019050919050565b600082825260208201905092915050565b600082825260208201905092915050565b6000610736826107e7565b9150610741836107e7565b9250827fffffffffffffffffffffffffffffffffffffffffffffffffffffffffffffffff03821115610776576107756107f1565b5b828201905092915050565b600061078c826107e7565b9150610797836107e7565b9250828210156107aa576107a96107f1565b5b828203905092915050565b60006107c0826107c7565b9050919050565b600073ffffffffffffffffffffffffffffffffffffffff82169050919050565b6000819050919050565b7f4e487b7100000000000000000000000000000000000000000000000000000000600052601160045260246000fd5b7f596f752063616e2774207769746864726177206d6f7265207468616e2077686160008201527f7420796f75206465706f73697465640000000000000000000000000000000000602082015250565b610878816107b5565b811461088357600080fd5b50565b61088f816107e7565b811461089a57600080fd5b5056fea2646970667358221220b6e31aee6c2f969308327008b359d770d48e2ebbbceb4572191c19a8f24caaa664736f6c63430008040033",
  "linkReferences": {},
  "deployedLinkReferences": {}
}