{
    "_format": "hh-sol-artifact-1",
    "contractName": "Fund",
    "sourceName": "contracts/Fund.sol",
    "abi": [
        {
            "inputs": [
                {
                    "internalType": "address",
                    "name": "",
                    "type": "address"
                }
            ],
            "name": "addressToAmountFunded",
            "outputs": [
                {
                    "internalType": "uint256",
                    "name": "",
                    "type": "uint256"
                }
            ],
            "stateMutability": "view",
            "type": "function"
        },
        {
            "inputs": [],
            "name": "fund",
            "outputs": [],
            "stateMutability": "payable",
            "type": "function"
        },
        {
            "inputs": [
                {
                    "internalType": "uint256",
                    "name": "",
                    "type": "uint256"
                }
            ],
            "name": "funders",
            "outputs": [
                {
                    "internalType": "address",
                    "name": "",
                    "type": "address"
                }
            ],
            "stateMutability": "view",
            "type": "function"
        },
        {
            "inputs": [],
            "name": "getFunders",
            "outputs": [
                {
                    "internalType": "address[]",
                    "name": "",
                    "type": "address[]"
                }
            ],
            "stateMutability": "view",
            "type": "function"
        },
        {
            "inputs": [],
            "name": "getTotalFunds",
            "outputs": [
                {
                    "internalType": "uint256",
                    "name": "",
                    "type": "uint256"
                }
            ],
            "stateMutability": "view",
            "type": "function"
        },
        {
            "inputs": [],
            "name": "totalFunds",
            "outputs": [
                {
                    "internalType": "uint256",
                    "name": "",
                    "type": "uint256"
                }
            ],
            "stateMutability": "view",
            "type": "function"
        },
        {
            "inputs": [],
            "name": "withdraw",
            "outputs": [],
            "stateMutability": "payable",
            "type": "function"
        }
    ],
    "bytecode": "0x608060405234801561001057600080fd5b506106a8806100206000396000f3fe6080604052600436106100705760003560e01c8063b60d42881161004e578063b60d4288146100e7578063dc0d3dff146100f1578063ea63a0441461012e578063eb8bbd281461015957610070565b80633ccfd60b146100755780633e47d6f31461007f578063968ed600146100bc575b600080fd5b61007d610184565b005b34801561008b57600080fd5b506100a660048036038101906100a191906103fd565b61020b565b6040516100b3919061052f565b60405180910390f35b3480156100c857600080fd5b506100d1610223565b6040516100de919061052f565b60405180910390f35b6100ef610229565b005b3480156100fd57600080fd5b5061011860048036038101906101139190610426565b6102fc565b60405161012591906104f2565b60405180910390f35b34801561013a57600080fd5b5061014361033b565b604051610150919061050d565b60405180910390f35b34801561016557600080fd5b5061016e6103c9565b60405161017b919061052f565b60405180910390f35b3373ffffffffffffffffffffffffffffffffffffffff166108fc6000803373ffffffffffffffffffffffffffffffffffffffff1673ffffffffffffffffffffffffffffffffffffffff168152602001908152602001600020549081150290604051600060405180830381858888f19350505050158015610208573d6000803e3d6000fd5b50565b60006020528060005260406000206000915090505481565b60015481565b346000803373ffffffffffffffffffffffffffffffffffffffff1673ffffffffffffffffffffffffffffffffffffffff16815260200190815260200160002060008282546102779190610583565b9250508190555034600160008282546102909190610583565b925050819055506002339080600181540180825580915050600190039060005260206000200160009091909190916101000a81548173ffffffffffffffffffffffffffffffffffffffff021916908373ffffffffffffffffffffffffffffffffffffffff160217905550565b6002818154811061030c57600080fd5b906000526020600020016000915054906101000a900473ffffffffffffffffffffffffffffffffffffffff1681565b606060028054806020026020016040519081016040528092919081815260200182805480156103bf57602002820191906000526020600020905b8160009054906101000a900473ffffffffffffffffffffffffffffffffffffffff1673ffffffffffffffffffffffffffffffffffffffff1681526020019060010190808311610375575b5050505050905090565b6000600154905090565b6000813590506103e281610644565b92915050565b6000813590506103f78161065b565b92915050565b60006020828403121561040f57600080fd5b600061041d848285016103d3565b91505092915050565b60006020828403121561043857600080fd5b6000610446848285016103e8565b91505092915050565b600061045b8383610467565b60208301905092915050565b610470816105d9565b82525050565b61047f816105d9565b82525050565b60006104908261055a565b61049a8185610572565b93506104a58361054a565b8060005b838110156104d65781516104bd888261044f565b97506104c883610565565b9250506001810190506104a9565b5085935050505092915050565b6104ec8161060b565b82525050565b60006020820190506105076000830184610476565b92915050565b600060208201905081810360008301526105278184610485565b905092915050565b600060208201905061054460008301846104e3565b92915050565b6000819050602082019050919050565b600081519050919050565b6000602082019050919050565b600082825260208201905092915050565b600061058e8261060b565b91506105998361060b565b9250827fffffffffffffffffffffffffffffffffffffffffffffffffffffffffffffffff038211156105ce576105cd610615565b5b828201905092915050565b60006105e4826105eb565b9050919050565b600073ffffffffffffffffffffffffffffffffffffffff82169050919050565b6000819050919050565b7f4e487b7100000000000000000000000000000000000000000000000000000000600052601160045260246000fd5b61064d816105d9565b811461065857600080fd5b50565b6106648161060b565b811461066f57600080fd5b5056fea2646970667358221220c9885f13600531fc6a7be7ac2034d51891745af3dc8f4f4e141d7d3e78b186f464736f6c63430008040033",
    "linkReferences": {},
    "deployedLinkReferences": {}
}